:020000040800F2
:10000000E807002091020008811D00086D18000813
:100010007D1D00083D040008A52000080000000028
:10002000000000000000000000000000891D000822
:100030004104000800000000851D00088D1D000817
:10004000AB020008AB020008AB020008AB020008DC
:10005000AB020008AB020008AB020008AB020008CC
:10006000AB020008AB020008AB020008AB020008BC
:10007000AB020008AB020008AB020008AB020008AC
:10008000AB020008AB020008AB020008AB0200089C
:10009000AB020008AB020008AB020008AB0200088C
:1000A000AB020008AB020008AB020008AB0200087C
:1000B0005D1E0008AB020008AB020008AB0200089E
:1000C000AB020008AB020008AB020008AB0200085C
:1000D000AB020008AB020008AB020008AB0200084C
:1000E000AB020008AB020008AB020008AB0200083C
:1000F000AB020008AB020008AB020008AB0200082C
:10010000AB020008AB020008AB020008AB0200081B
:10011000AB020008AB020008AB020008AB0200080B
:10012000AB020008AB020008AB020008AB020008FB
:10013000AB0200080000000000000000AB02000855
:10014000AB020008AB020008AB020008AB020008DB
:10015000AB020008AB020008AB020008AB020008CB
:10016000AB020008AB020008AB020008AB020008BB
:10017000AB020008AB020008AB0200080000000060
:1001800000000000AB0200080000000000000000BA
:10019000AB0200080000000000000000AB020008F5
:1001A000000000000000000000000000AB0200089A
:1001B000AB020008AB020008AB020008AB0200086B
:1001C000AB02000800F002F800F052F814A696E81E
:1001D000000CB244B344DA4501D100F049F8BAE862
:1001E0000F000FA696E83000A5EB040504EB060708
:1001F000AAEB0704A7F101074FEA15154FEA3414DB
:10020000A4F10104AC4201D300F032F813F0010F65
:1002100018BFFB1A43F0010300F001F8DBE71847B1
:100220006C1F00008C1F0000103A24BF78C878C1F2
:10023000FAD8520724BF30C830C144BF04680C60EC
:1002400070470000704700000023002400250026AE
:10025000103A28BF78C1FBD8520728BF30C148BF29
:100260000B6070471FB501F077FF1FBD10B510BDC3
:1002700000F0A9F81146FFF7F5FF01F015FF00F0B7
:10028000C7F803B4FFF7F2FF03BC00F0CFF800009B
:100290000948804709480047FEE7FEE7FEE7FEE71A
:1002A000FEE7FEE7FEE7FEE7FEE7FEE70448054956
:1002B000054A064B70470000491E0008C5010008AA
:1002C000E8010020E8070020E8030020E803002000
:1002D00053EA020C00F069802DE9F04B4FF0000664
:1002E000002B1FBFB3FA83F503FA05F424FA05F6D1
:1002F0005E4012BF1643B2FA82F502FA05F4C5F168
:1003000020051EBF22FA05FC44EA0C04203556EAFB
:10031000044C4FEA144418BF641C4FF000084FF01F
:100320000009904271EB030C39D3002919BFB1FACF
:1003300081F701FA07F6B0FA80F700FA07F6C7F17D
:1003400020071EBF20FA07FC46EA0C062037B6FB42
:10035000F4FCA7EB0507103F07F01F0BCBF12006BD
:100360002CFA06F60CFA0BFB44BFB3460026202FEE
:10037000A4BF5E464FF0000B5BEA060C08BF4FF0CF
:10038000010B19EB0B0948EB0608ABFB027C06FBE3
:1003900002CC0BFB03CCC01B71EB0C01C1E70B467D
:1003A000024641464846BDE8F08B13B5084318BFE6
:1003B0004FF0FF300146AFF30080BDE81C407047AE
:1003C000704770477047754600F02CF8AE46050040
:1003D0006946534620F00700854618B020B5FFF760
:1003E00065FFBDE820404FF000064FF000074FF0DA
:1003F00000084FF0000BAC46ACE8C009ACE8C009FF
:10040000ACE8C009ACE8C00921F007018D4670478F
:1004100010B50446AFF300802046BDE81040FFF75A
:1004200030BF00000048704710000020014918202C
:10043000ABBEFEE72600020070470000FEE70000AA
:100440007047000072B600BFFEE7000010B590F8DC
:1004500020E0D0F800C0AEF1010EBEF1010FDCF8D3
:1004600008E011D81EF0E05F18D0CEF3016E012035
:1004700000FA0EF018608B68D3B14868CC6844EA83
:10048000C000034318E000BF00F1240101204FF435
:1004900080220B681A430A6010BD00BF00F12401DE
:1004A00001204FF400120B681A430A6010BD00BF10
:1004B0000868CB6843EA40530CEB0E10C0F880315B
:1004C0000B69C0F88431097D012905D100F5C2719D
:1004D0000B6843F480730B605168C0F88C1112688C
:1004E00000F5C071C0F88821002001220B681A4372
:1004F0000A6010BD002804BF01207047B0B5044653
:1005000090F8200010B9204600F06EF820680168CD
:1005100041F00101016000F0C1F905462068416821
:10052000C90705D100F0BAF9401B0B28F6D310E03B
:10053000016821F00201016000F0B0F9054600BF3A
:100540002068416889070DD500F0A8F9401B0B28E9
:10055000F6D3606A052140F400306062012084F81F
:100560002010B0BD217E0268012922F0800208BF60
:1005700080320260617E0268012922F0400208BFD9
:1005800040320260A17E0268012922F0200208BFE9
:1005900020320260E17E0268012922F0100218BFB9
:1005A00010320260217F0268012922F0080208BF90
:1005B00008320260617F0268012922F0040208BF4C
:1005C00004320260D4E901C2D4E9033561691A43F7
:1005D0002A431143ACF101021143C1610020012102
:1005E000606284F82010B0BD80B586B0006846F621
:1005F0000002C4F2000200219042CDE90411CDE9CD
:100600000211019130D046F20041C4F2000188424B
:100610006CD140F2A801C2F200010A6843F6400022
:10062000C4F20200531C0B6052B900210091016812
:1006300041F000710160016801F0007100910099C2
:100640000021009150F8101C41F0010140F8101CED
:1006500050F8100C4FF4C05100F0010000900098C9
:100660000020C4F2020035E043F64000C4F202006C
:100670000091016841F080610160016801F08061D2
:100680000091009940F2A801C2F200010A68531CCF
:100690000B6052B900210091016841F000710160C6
:1006A000016801F00071009100990021009150F85B
:1006B000101C41F0020140F8101C50F8100C4FF4CF
:1006C000405100F00200009000980020C4F20200A7
:1006D00000F5806001910221029100210391032124
:1006E00004910921059101A900F002F806B080BD2E
:1006F0002DE9F04F82B000F13E4707F1FF77860504
:1007000046EA972741F60006C4F20206072243F69E
:10071000004EB04208BF0622C4F2010E062F38BFB9
:100720003A46002600274FF00008009209E000BF7B
:1007300008F101080237B8F1100F06F1040600F0C5
:10074000A3800D68012202FA08F415EA0409EFD02B
:10075000D1F804B003220BF0030CACF10105BA4050
:10076000012D6FEA020A0FD88268CD6802EA0A02F8
:10077000BD402A4382604268A243CBF3001404FACE
:1007800008F42243426005E0BCF1030F02D14FF0B0
:10079000030C1EE0C2688C6802EA0A02BC402243D5
:1007A000BCF1020FC26014D16FF0030202EA5802DA
:1007B0000244D2F820C006F01C040F230D69A340A8
:1007C0002CEA0303A5402B431362D1F804B00BF0CD
:1007D000030C02680CFA07F302EA0A021A431BF43C
:1007E000403F0260A4D0002243F644030192C4F2C9
:1007F00002031A684FF6084C42F480421A601A68E5
:10080000CFF6FF7C02F480420192019A28F00302A5
:10081000724452F80C3006F00C050F24AC40A34390
:10082000009C04FA05F52B4342F80C30DEF8082052
:100830004B6842EA090543F60C4CDC0258BF22EA39
:100840000905CEF80850C4F2010CDCF800209C0227
:1008500042EA090558BF22EA0905CCF80050DEF843
:1008600004209C0342EA090558BF22EA0905CEF894
:100870000450DEF80020DB0342EA090558BF22EAF3
:100880000905CEF8005053E702B0BDE8F08F000034
:10089000002A08BF090481617047000040F2E0109F
:1008A000C2F2000000687047002804BF01207047B2
:1008B000F0B581B0044690F83D0028B9002084F8D6
:1008C0003C00204600F0A2F8242084F83D00206877
:1008D000016821F001010160016841F400410160FB
:1008E000016821F40041016000F08CFA636848F26D
:1008F000A16CC0F2010C40F60011C0F23D0163454D
:100900003CBF48F28041C0F21E01884202D2012061
:1009100001B0F0BD4DF68361C4F21B31A0FB0112A2
:100920002168970CD1F804E04FF496762EF03F053D
:1009300045EA92454D60774348F638160D6AC0F295
:100940004106A7FB067625F03F07634538BF960CA6
:10095000721C3A430A62CA6948F2A0664CF6FF77F5
:10096000C0F20106B34222EA07020BD801385B004D
:10097000B0FBF3F001306FF31F30042898BF042060
:100980001BE000BFA768013857B119277B43B0FBB4
:10099000F3F001306FF31F3070B100F5804007E0D5
:1009A00003EB4303B0FBF3F001306FF31F3018B1DA
:1009B00000F5004001E000BF01201043C861086855
:1009C000D4E9072320F0C00010431843086088686A
:1009D00048F2FF3204F10C0790438CCF18431043C8
:1009E000A6698860C86820F0FF0038433043C860BB
:1009F000086840F00100086000202021206484F88D
:100A00003D10206384F83E0001B0F0BD2DE9F047B1
:100A100086B0006845F60047C4F20007B84203D02C
:100A200006B0BDE8F08700BF002643F6300501960A
:100A3000C4F20205286801AC40F001002860286873
:100A40004FF0120800F0010001900198019628680B
:100A50004FF0030940F00200286028684FF0040AB4
:100A600000F00200019001984FF48070019007F5AA
:100A7000D2302146CDE90286CDF81090CDF814A0F1
:100A8000FFF736FE1020CDE9010803A880E84006F4
:100A900007F5D4302146FFF72BFE0096286940F475
:100AA00000002861286900F400000090009806B05A
:100AB000BDE8F08740F2000040F2E011C2F2000011
:100AC000C2F2000100780A68104408607047000014
:100AD00080B543F60040C4F20200016841F40071A1
:100AE0000160016841F480610160016841F4807136
:100AF0000160032000F086F80F2000F005F800F0F8
:100B000027F8002080BD000070B540F20006C2F258
:100B1000000640F20C013278C2F200014FF47A7301
:100B20000968B3FBF2F20446B1FBF2F1084600F0AB
:100B3000D1FB0F2C4FF0010508D838B94FF0FF302A
:100B400021460022002500F031F87460284670BD6F
:100B500082B0002043F640010190C4F202014A68CD
:100B600042F480424A604A6802F480420192019A4B
:100B70000090086840F080500860086800F08050DD
:100B80000090009802B07047002848BF704700F0FE
:100B90001F01012202FA01F11C2202EAD0004EF2EA
:100BA0000012CEF2000281507047000010B54EF6E0
:100BB0000C5CCEF2000CDCF80030C3F3022E8EF099
:100BC0000704042C28BF0424BEF103034FF0FF3EAA
:100BD0000EFA04F438BF0023A14399400EFA03F340
:100BE0009A43114300F00F0200F160430901043AF7
:100BF00003F564436244002848BF02F10C031970F6
:100C000010BD00004EF60C51CEF200010A684FF6FE
:100C1000FF031A4060F30A2242F0806040F0FD704A
:100C20000860704770B582B00020019043F6400024
:100C3000C4F202000168402641F080510160006862
:100C4000C4F20E2600F080500190019847F204058E
:100C50000120C4F200053060FFF720FE044600BF0B
:100C60002868C00306D4FFF719FE001BB0F57A7F91
:100C7000F6D90EE001207060FFF710FE044600BFB9
:100C80002868800308D4FFF709FE001BB0F57A7FBF
:100C9000F6D9032002B070BD002002B070BD000084
:100CA000002804BF012070472DE9F04143F60808F1
:100CB000C4F202080446D8F8F8030D4600F00F000D
:100CC000884207D288F8F853D8F8F80300F00F00EC
:100CD000A84277D12068810717D5410705D5D8F8F4
:100CE000001041F4E051C8F80010010705D5D8F80C
:100CF000001041F46041C8F80010D8F80010A26854
:100D000021F0F0011143C8F80010C00740D1D8F815
:100D1000F80300F00F00A84207D988F8F853D8F874
:100D2000F80300F00F00A8424CD12068410707D516
:100D3000D8F80010E26821F4E0511143C8F800101F
:100D4000000708D5D8F80000216920F4604040EA87
:100D5000C100C8F8000000F07DF8D8F8001042F299
:100D60007212C1F30311C0F60002515C40F20C0292
:100D700020FA01F140F20400C2F200000068C2F261
:100D800000021160FFF7C0FE0020BDE8F08100BF47
:100D90006068811E022907D258F8081C89015CBFCF
:100DA0000120BDE8F08111E0012807D158F8081CA6
:100DB00089035CBF0120BDE8F08107E058F8081CFA
:100DC000890703D40120BDE8F08100BFD8F80010E6
:100DD00021F003010843C8F80000FFF75FFD064655
:100DE00041F28837D8F80000616800F00C00B0EBE1
:100DF000810F8CD0FFF752FD801BB842F2D903203F
:100E0000BDE8F08140F20C0043F60801C2F2000098
:100E1000C4F202010068096842F28212C1F3822121
:100E2000C0F60002515CC8407047000040F20C0060
:100E300043F60801C2F20000C4F20201006809682A
:100E400042F28212C1F34231C0F60002515CC84046
:100E50007047000010B543F60404C4F20204606851
:100E6000C0F3810142F20040C0F2F400DFE801F07B
:100E70004102082641F60030C0F2B70010BD00BFA5
:100E8000206821682368490241F60031C0F2B701A9
:100E900000F03F02C3F388105CBF42F20041C0F291
:100EA000F401A1FB00010023FFF712FA21680222DE
:100EB000C1F3014102EB410119E000BF2068216844
:100EC0002368490241F60031C0F2B70100F03F0249
:100ED000C3F388105CBF42F20041C0F2F401A1FBF1
:100EE00000010023FFF7F4F92168C1F30271B0FBA0
:100EF000F1F010BD002804BF012070472DE9F0413A
:100F000082B00446007843F60006C007C4F2020629
:100F10000CD0B06800F00C00042840F089803068E4
:100F2000800303D56068002800F050812078800796
:100F300023D5B06810F00C0F11D0B06800F00C0091
:100F4000082802D17068400209D5B06800F00C0092
:100F50000C2840F09F807068400200F19B80306850
:100F6000800703D5E068012840F0308130682169AE
:100F700020F0F80040EAC10030602078000713D468
:100F8000207840072AD4A569002D00F01A81B068A6
:100F900000F00C00082840F0AB80012D40F0E88004
:100FA000012002B0BDE8F0816069002840F2000035
:100FB000C4F2472000F088800121C0F8801EFFF7AE
:100FC0006DFC0546706F8007DAD4FFF767FC401BA5
:100FD0000228F7D9032002B0BDE8F081306C5FEA47
:100FE000C0080AD400200190306C40F0805030647A
:100FF000306C00F080500190019847F20007C4F275
:1010000000073868C00537D4386840F4807038600D
:10101000FFF744FC054600BF3868C0052CD4FFF735
:101020003DFC401B0228F7D9032002B0BDE8F08147
:10103000B06800F00C00082803D1706840023FF54A
:101040006EAFB06800F00C000C2803D1706840024D
:101050003FF565AF6068B0F5803F07D0B0F5A02FD1
:1010600040F0CC80306840F480203060306840F43C
:1010700080303060CCE000BFA068012805D0052892
:1010800058D1306F40F004003067306F40F00100FD
:1010900030675AE0E068002800F09C800020C4F22D
:1010A000472001210160FFF7F9FB05463068800702
:1010B0003FF55CAFFFF7F2FB401B02284FF0030047
:1010C000F4D902B0BDE8F0810021C0F8801EFFF71E
:1010D000E5FB0546706F80077FF552AFFFF7DEFB3B
:1010E000401B0228F6D9032002B0BDE8F08100BF02
:1010F0000027C4F2472700203866FFF7CFFB022DF8
:1011000005460BD13068800140F19480FFF7C6FBA3
:10111000401B02284FF00300F4D9D2E73068800169
:101120004FD5FFF7BBFB401B02284FF00300F5D95A
:10113000C7E700BF316F002821F001013167316F2F
:1011400021F00401316700F09980FFF7A7FB054605
:1011500041F28837306F800700F1A280FFF79EFBD5
:10116000401BB842F6D9032002B0BDE8F08100BFB1
:101170007068E16900F480028A4227D1216A00F098
:101180003F028A4222D147F6C071626A0140B1EB48
:10119000821F1BD1A16A4FF6FF73C903994300F464
:1011A0004032A1F580318A4210D1E16A00F07062CC
:1011B000B2EB016F0AD1216B00F0E040B0EB017F90
:1011C00004D1002002B0BDE8F08100BF012002B0D0
:1011D000BDE8F0810020C4F2472000210160FFF744
:1011E0005DFB0546306880077FF5C7AEFFF756FB0D
:1011F000401B02284FF00300F4D962E73168002851
:1012000021F480313160316821F48021316051D086
:10121000FFF744FB054600BF306880033FF586AE0C
:10122000FFF73CFB401B6428F6D9032002B0BDE861
:10123000F08100BF04F11C052FCD246B084340EA68
:101240008210D9034FF6FF729143A1F5803140EA35
:101250000560084340EA0470706001203866FFF7BB
:101260001DFB044630688001ABD4FFF717FB001B61
:1012700002284FF00300F5D923E700BFFFF70EFB6C
:10128000054641F2883700BF306F800708D5FFF769
:1012900005FB401BB8424FF00300F5D911E700BF32
:1012A000B8F1000F3FF56FAE306C20F08050306425
:1012B00069E600BFFFF7F2FA054600BF3068800319
:1012C0007FF534AEFFF7EAFA401B64284FF00300C5
:1012D000F4D9F6E6411E0020B0EB116F1CBF0120CF
:1012E00070474EF21002CEF2000251604EF62351CA
:1012F000CEF20001F0230B7007219060116070475F
:10130000704700007047000090F83C20012A4FF021
:10131000020254D010B580F83D200268D2F804E0F3
:10132000D2F808C00C682EF07003234341F2FF741A
:10133000C4F20004A24253600EDC40F2FF73C4F218
:1013400000039A4216DCB2F1804F2BD040F20043EA
:10135000C4F2000324E000BF40F2FF33C4F20103F3
:101360009A4213DC41F60003C4F200039A4219D0FA
:10137000002313E040F60003C4F200039A4211D0A8
:1013800040F60043C4F200030AE000BF44F2000349
:10139000C4F201039A4205D040F20043C4F20103B3
:1013A0009A4204D149682CF08003194391600121CD
:1013B000002280F83D1080F83C20BDE81040104627
:1013C00070470000002804BF0120704710B5044694
:1013D00090F83D0028B9002084F83C00204600F039
:1013E0001FF8022084F83D002068211D00F03CFD1C
:1013F000012084F8460084F83E0084F83F0084F819
:10140000400084F8410084F8420084F8430084F8E6
:10141000440084F8450084F83D00002010BD000021
:101420000068B0F1804F18BF704780B582B00020CF
:10143000019043F64000C4F202000168002241F02E
:10144000010101600068002100F001000190019895
:101450001C20FFF7ABFB1C2002B0BDE88040FFF76B
:1014600093BB000090F83C20012A4FF0020200F0EC
:10147000C58080B580F83D20D0F800C04FF6777267
:10148000DCF8083023EA0202CCF808200B684F2B66
:1014900028DC1F2B44DD202B45D0302B43D0402BA4
:1014A00040F0AE80D1F804E0C968DCF82030DCF808
:1014B000202022F00102CCF82020DCF8182022F0B5
:1014C000F00242EA011123F00A0242EA0E02CCF8CD
:1014D0001810CCF82020DCF8081041F0470121F06A
:1014E000300180E06F2B27DDB3F5005F48D0B3F506
:1014F000805F7AD0702B40F08380D1E901E3C96826
:10150000DCF8082043EA0E0322F47F4243EA01217B
:101510001143CCF80810DCF8081041F0770162E0C4
:101520000BB1102B6CD1DCF8081021F070011943BD
:1015300041F0070157E000BF502B35D0602B5FD141
:10154000D1F804E0C968DCF82030DCF8202022F073
:101550001002CCF82020DCF8182022F4704242EA75
:10156000013123F0A00242EA0E12CCF81810CCF898
:101570002020DCF8081041F0670121F0100132E072
:10158000D1E901E3C968DCF8082043EA0E0322F43C
:101590007F4243EA01211143CCF80810DCF808101F
:1015A00041F480411FE000BFD1F804E0C968DCF8D5
:1015B0002030DCF8202022F00102CCF82020DCF8DA
:1015C000182022F0F00242EA011123F00A0242EA56
:1015D0000E02CCF81810CCF82020DCF8081041F0EE
:1015E000570121F02001CCF808100022012180F8D9
:1015F0003D10002180F83C10BDE880401046704747
:101600000122F3E77047000070B504460068C56822
:101610000669B10716D515F0020113D06FF002016B
:101620000161012121778069800703D02046FFF7FF
:10163000E9FF05E0204600F08FF8204600F08EF824
:1016400000202077700719D515F0040016D0206807
:101650006FF00401016102212177806910F4407F5D
:1016600004D02046FFF7CEFF06E000BF204600F082
:1016700073F8204600F072F800202077300717D565
:1016800015F0080014D020686FF0080101610421F2
:101690002177C069800703D02046FFF7B3FF05E03C
:1016A000204600F059F8204600F058F80020207736
:1016B000F00619D515F0100016D020686FF0100153
:1016C000016108212177C06910F4407F04D02046D1
:1016D000FFF798FF06E000BF204600F03DF82046E7
:1016E00000F03CF800202077F00718BF15F001004B
:1016F00002D1300609D412E020686FF001010161C7
:10170000204600F02DF8300609D515F0800006D0EF
:1017100020686FF0800101612046FFF7F1FD70063F
:1017200009D515F0400006D020686FF04001016136
:10173000204600F017F8B00658BF70BD15F0200025
:1017400008D021686FF0200220460A61BDE8704091
:10175000FFF7D8BD70BD0000704700007047000063
:101760007047000070470000002804BF0120704748
:1017700010B5044690F8410028B9002084F84000D4
:10178000204600F021F8242084F841002068C16838
:1017900021F40051C160204600F00CFC2068016972
:1017A00021F490410161416921F02A014161C16840
:1017B00041F40051C16000202021606484F8411090
:1017C00084F84210606310BD2DE9F04385B00068D5
:1017D00045F20005C4F20005A84203D005B0BDE8FB
:1017E000F08300BF002643F630000096C4F20200EA
:1017F00001696C4641F48011016101694FF00208F2
:1018000001F4801100910099009601684FF00309DE
:1018100041F0040101600168082701F00401009112
:1018200000990096016841F00801016000682146B6
:1018300000F00800009000984FF48050009005F5EB
:10184000DC30CDE90186CDF80C900497FEF750FF0F
:101850000420CDE9000805F5DE302146CDE9026916
:101860000497FEF745FF05B0BDE8F083FEE70000F2
:10187000B2EE083AB4EE430A00F10901F1EE10FAB3
:10188000B0EE434A0ADCBAEE085AB4EE450AB0EEAE
:10189000404AF1EE10FAB8BFB0EE454A9FED830A18
:1018A00034EE033A23EE003AB3EE084A83EE043AEC
:1018B00001238B70BDEEC33A13EE102AB2EE093A43
:1018C000F4EE430AF1EE10FAB0EE434A0A800ADC65
:1018D000BAEE095AF4EE450AB0EE604AF1EE10FA9B
:1018E000B8BFB0EE454A34EE034A24EE005AB3EED8
:1018F000094A85EE045A0246F4EE430AF1EE10FA64
:10190000BDEEC55A15EE101A4FEA112102F80C1F50
:10191000B0EE435A0ADCBAEE096AF4EE460AB0EEBB
:10192000605AF1EE10FAB8BFB0EE465A35EE033AFF
:1019300023EE003A83EE043ABDEEC33A13EE101ADA
:10194000B3EE0E3AB4EE431AF1EE10FA417305DD30
:10195000FF218173B0EE431A20E000BF31EE034A4D
:101960009FED535A24EE004A84EE055ABBEE0E4A10
:10197000B4EE441A9FED4F6AF1EE10FAB8BFB0EE24
:10198000465ABDEEC55A15EE101A090AB4EE441AAD
:10199000F1EE10FA8173B8BFB0EE441A31EE031ABB
:1019A0009FED433A21EE001A81EE031ABDEEC13AD3
:1019B0009FED411A13EE101AF4EE411AF1EE10FAEF
:1019C000C17305DDFF210174F0EE411A1AE000BF7A
:1019D00021EE803A83EE014AF5EE401A9FED353A4A
:1019E000F1EE10FAB8BFB0EE434ABDEEC44A14EEB1
:1019F000101A090AF5EE401AF1EE10FA0174B8BF98
:101A0000F0EE431A21EE803A83EE011ABDEEC11AC0
:101A100011EE101AB1EE041AB4EE412AF1EE10FAEA
:101A2000417405DDFF218174B0EE412A1AE000BF48
:101A300022EE003A83EE014AB5EE402A9FED1D3AB0
:101A4000F1EE10FAB8BFB0EE434ABDEEC44A14EE50
:101A5000101A090AB5EE402AF1EE10FA8174B8BFE7
:101A6000B0EE432A80B582B022EE000A80EE010A71
:101A70000823BDEEC00A10EE101AC17440F29001A6
:101A8000C2F200010B6104238B600023CB608368EA
:101A900000684B6001ABFEF7D9FC002802B0BDE83E
:101AA000804008BF704700BFFEE700BF00FF7F47D0
:101AB00000007042000000000000FA4380B582B0D0
:101AC000017240F20801C2F2000109780322A0F875
:101AD000091040F29001C2724FF0000C0246C2F2AF
:101AE00000010823C0F810C042F80CCF0B6104239A
:101AF000C1E9023C836800684B6001ABFEF7A6FCBD
:101B000010B100BFFEE700BF02B080BD80B582B05B
:101B100040F290014FF0000C0246C2F2000108238F
:101B200080F808C080F80BC0A0F809C0C0F810C049
:101B300042F80CCF0B610423C1E9023C83680068C2
:101B40004B6001ABFEF782FC10B100BFFEE700BFA7
:101B500002B080BD0160704780B540F2AC0046F233
:101B60000041C2F20000C4F2000100234FF4402CF7
:101B7000032280E80E00C0E9033CC0E905338383FB
:101B8000FEF7B8FC002808BF80BDBDE88040FEF726
:101B900059BC000080B540F2D40046F60001C2F204
:101BA0000000C4F2000100234FF4402C032280E81F
:101BB0000E00C0E9033CC0E905338383FEF79AFCBD
:101BC000002808BF80BDBDE88040FEF73BBC000098
:101BD00070B586B0002643F6300005960096C4F234
:101BE0000200016840F6000441F004010160016850
:101BF000C4F2020401F0040100910099009601680A
:101C0000002241F080010160016842F2110501F0FB
:101C10008001009100990096016841F00201016085
:101C2000016801F00201009100990096016841F0FD
:101C300001010160016801F0010100910099009625
:101C4000016841F008010160006842F2110100F0F2
:101C50000800009000982046FEF71AFE019501202A
:101C600001ADCDE90206204629460496FEF740FD67
:101C70004FF40040CDE90106A4F500602946039623
:101C8000FEF736FD06B070BD80B540F2FC0045F6AB
:101C90000041C2F20000C4F2000148F2A062002339
:101CA0004FF4804CC0F2010280E80E00C0E9033C12
:101CB000C0E90533C0E90733FEF7F6FD002808BF89
:101CC00080BDBDE88040FEF7BDBB000080B586B09A
:101CD00040F250100021C2F200004FF0804241F665
:101CE0001F434FF0130C0591CDE90311CDE900110D
:101CF000C0E90023C0E9021C01618161FFF762FBBA
:101D0000002818BFFEF79EFB4FF48050029040F26F
:101D10005010C2F2000002A9FFF7A4FB002818BF70
:101D2000FEF790FB40F25010C2F200006946FFF748
:101D3000EBFA002818BFFEF785FB06B080BD000057
:101D400080B540F2981045F20001C2F20000C4F2E2
:101D5000000100234FF00C0C4FF4E13280E80E003C
:101D6000C0E90333C0E905C3C361FFF7FDFC0028E8
:101D700008BF80BDBDE88040FEF764BBFEE7000001
:101D8000FEE700007047000070470000FEF792BEBB
:101D900080B594B0002043F640010C90CDE90A00D4
:101DA000CDE908000690CDE90400CDE902000190DC
:101DB000C4F202010A6842F080520A60096801F028
:101DC00080510191019947F200010190C4F2000194
:101DD0000A6842F440420A600968012201F4404165
:101DE000019101990221CDE90D1008200F90B42036
:101DF0000A921022CDE9100107A807910B92CDE9B4
:101E00001211FFF777F818B172B600BFFEE700BFF6
:101E1000FEF708FF10B172B6FEE700BF0F20029078
:101E200002200390002004904FF4A05005904FF43E
:101E30008050069002A80521FEF732FF10B172B65D
:101E4000FEE700BF14B080BD4EF68850CEF2000011
:101E5000016841F4700101607047000040F25010C9
:101E6000C2F20000FFF7D0BB10B540F6FF3E03689A
:101E7000C4F2000E40F2004C7045C4F2010C27DCA5
:101E8000B0F1804F31D040F20042C4F200029042E3
:101E90002BD040F60002C4F20002904225D041F659
:101EA000FF72C4F20002904229DC70453CDCB0F1C4
:101EB000804F5FD040F20042C4F20002904259D0FD
:101EC00040F60002C4F20002904253D056E000BF38
:101ED00040F60042C4F20002904206D0604504D0B1
:101EE0000022C4F201029042D9D14A6823F0700363
:101EF000134341F6FF72C4F200029042D5DD43F66F
:101F0000FF72C4F20102904222DC42F20002C4F2EB
:101F1000000290422ED00022C4F20102904229D049
:101F2000604527D02AE000BF40F60042C4F200021C
:101F300090421FD041F60002C4F20002904219D034
:101F400041F60042C4F20002904213D016E000BFF6
:101F500044F20002C4F2010290420BD044F60002A7
:101F6000C4F20102904205D044F20042C4F20102E0
:101F7000904203D1CA6823F44073134323F08002D4
:101F80004B69D1F800E08C681A430260C46240F4E7
:101F90008062C0F828E0624504BF0969016301213D
:101FA00041610169C90708BF10BD016921F0010144
:101FB000016110BD10B504460068D4E902C223696E
:101FC000016921F4405111430161626943EA0C0146
:101FD000E3691143C268194349F20C639A43114300
:101FE000C1604169A26921F4407141F2004311438B
:101FF00040F48062C4F201039A42416102D1FEF7CB
:1020000015FF01E0FEF7FEFEE16963681922B1F5F4
:10201000004FA0FB020123D15A00DB0FFEF758F955
:1020200048F21F51C5F2EB11A0FB01235A094FF6EC
:102030009C73C0F6FF7303F1805302FB030032234D
:1020400003EBC000A0FB01014FF4F87000EA11108F
:1020500000EB0210C1F3421108442168886010BDF2
:102060009A009B0FFEF734F948F21F51C5F2EB11AD
:10207000A0FB01235A094FF69C73C0F6FF7302FBC5
:102080000300322303EB0010A0FB0101F02000EA63
:10209000511000EB0210C1F343110844216888601D
:1020A00010BD0000FEE70000FEF712FDFFF770FE16
:1020B000FFF78EFDFFF70AFEFFF74EFDFFF76AFD03
:1020C000FFF7E2FDFFF73CFE40F27004C2F20004AD
:1020D000D4E90101FFF73EFD6068FFF717FD606876
:1020E0002178FFF7EBFC4FF07E5500200026C4E975
:1020F00003506068DFED160AB1EE048AB7EE009A6D
:10210000C4F2A006B0EE490AB0EE481AF0EE491A41
:10211000B0EE492AC4E90565E561FFF7A9FB4FF078
:1021200080400021C4E903506068DFED0A1AC4F260
:102130007A31F0EE000AB0EE490AB0EE481AB0EE7D
:10214000492AC4E90561E561FFF792FBFEE700BF9C
:102150000000000000007A43F1EE100A4FF6FF7114
:10216000C0F2C03120EA010040F04070E1EE100AF8
:102170007047000000000000000001020304060791
:10218000080900000000010203040000B02100085B
:10219000000000201000000028020008C0210008F4
:1021A00010000020D80700004802000800000000CE
:1021B0000100000010000000010000000024F400F5
:04000005080001C529
:00000001FF
